{
  "_format": "hh-sol-artifact-1",
  "contractName": "FundMe",
  "sourceName": "contracts/FundMe.sol",
  "abi": [
    {
      "inputs": [],
      "name": "fund",
      "outputs": [],
      "stateMutability": "payable",
      "type": "function"
    },
    {
      "inputs": [],
      "name": "getChainlinkDataFeedLatestAnswer",
      "outputs": [
        {
          "internalType": "int256",
          "name": "",
          "type": "int256"
        }
      ],
      "stateMutability": "view",
      "type": "function"
    }
  ],
  "bytecode": "0x6080604052670de0b6b3a7640000600255348015601b57600080fd5b506101d98061002b6000396000f3fe6080604052600436106100295760003560e01c8063b60d42881461002e578063bea4dfb514610038575b600080fd5b610036610063565b005b34801561004457600080fd5b5061004d6100ed565b60405161005a919061010b565b60405180910390f35b6002543410156100a8576040517f08c379a000000000000000000000000000000000000000000000000000000000815260040161009f90610183565b60405180910390fd5b346000803373ffffffffffffffffffffffffffffffffffffffff1673ffffffffffffffffffffffffffffffffffffffff16815260200190815260200160002081905550565b600090565b6000819050919050565b610105816100f2565b82525050565b600060208201905061012060008301846100fc565b92915050565b600082825260208201905092915050565b7f53656e64206d6f72652045544800000000000000000000000000000000000000600082015250565b600061016d600d83610126565b915061017882610137565b602082019050919050565b6000602082019050818103600083015261019c81610160565b905091905056fea2646970667358221220fc9c852822bfdc11e8c7bfdb345e1ad281315e5710b46f6649b5a2644f5c495564736f6c634300081c0033",
  "linkReferences": {},
  "deployedLinkReferences": {}
}