{
  "_format": "hh-sol-artifact-1",
  "contractName": "FundMe",
  "sourceName": "contracts/FundMe.sol",
  "abi": [
    {
      "inputs": [
        {
          "internalType": "uint256",
          "name": "_lockTime",
          "type": "uint256"
        }
      ],
      "stateMutability": "nonpayable",
      "type": "constructor"
    },
    {
      "inputs": [],
      "name": "fund",
      "outputs": [],
      "stateMutability": "payable",
      "type": "function"
    },
    {
      "inputs": [
        {
          "internalType": "address",
          "name": "",
          "type": "address"
        }
      ],
      "name": "fundersToAmount",
      "outputs": [
        {
          "internalType": "uint256",
          "name": "",
          "type": "uint256"
        }
      ],
      "stateMutability": "view",
      "type": "function"
    },
    {
      "inputs": [],
      "name": "getChainlinkDataFeedLatestAnswer",
      "outputs": [
        {
          "internalType": "int256",
          "name": "",
          "type": "int256"
        }
      ],
      "stateMutability": "view",
      "type": "function"
    },
    {
      "inputs": [],
      "name": "getFund",
      "outputs": [],
      "stateMutability": "nonpayable",
      "type": "function"
    }
  ],
  "bytecode": "0x6080604052670de0b6b3a7640000600255662386f26fc1000060035534801561002757600080fd5b50604051610c82380380610c828339818101604052810190610049919061012e565b73694aa1769357215de4fac081bf1f309adc325306600160006101000a81548173ffffffffffffffffffffffffffffffffffffffff021916908373ffffffffffffffffffffffffffffffffffffffff16021790555033600460006101000a81548173ffffffffffffffffffffffffffffffffffffffff021916908373ffffffffffffffffffffffffffffffffffffffff16021790555080600581905550426006819055505061015b565b600080fd5b6000819050919050565b61010b816100f8565b811461011657600080fd5b50565b60008151905061012881610102565b92915050565b600060208284031215610144576101436100f3565b5b600061015284828501610119565b91505092915050565b610b188061016a6000396000f3fe60806040526004361061003f5760003560e01c80638edd6eb6146100445780639f883a051461005b578063b60d428814610098578063bea4dfb5146100a2575b600080fd5b34801561005057600080fd5b506100596100cd565b005b34801561006757600080fd5b50610082600480360381019061007d9190610554565b610325565b60405161008f919061059a565b60405180910390f35b6100a061033d565b005b3480156100ae57600080fd5b506100b7610420565b6040516100c491906105ce565b60405180910390f35b6005546006546100dd9190610618565b42101561011f576040517f08c379a0000000000000000000000000000000000000000000000000000000008152600401610116906106a9565b60405180910390fd5b600460009054906101000a900473ffffffffffffffffffffffffffffffffffffffff1673ffffffffffffffffffffffffffffffffffffffff163373ffffffffffffffffffffffffffffffffffffffff16146101af576040517f08c379a00000000000000000000000000000000000000000000000000000000081526004016101a690610715565b60405180910390fd5b6003546000803073ffffffffffffffffffffffffffffffffffffffff1673ffffffffffffffffffffffffffffffffffffffff168152602001908152602001600020541015610232576040517f08c379a000000000000000000000000000000000000000000000000000000000815260040161022990610781565b60405180910390fd5b60003373ffffffffffffffffffffffffffffffffffffffff1647604051610258906107d2565b60006040518083038185875af1925050503d8060008114610295576040519150601f19603f3d011682016040523d82523d6000602084013e61029a565b606091505b50509050806102de576040517f08c379a00000000000000000000000000000000000000000000000000000000081526004016102d590610833565b60405180910390fd5b60008060003373ffffffffffffffffffffffffffffffffffffffff1673ffffffffffffffffffffffffffffffffffffffff1681526020019081526020016000208190555050565b60006020528060005260406000206000915090505481565b600254610349346104c1565b101561038a576040517f08c379a00000000000000000000000000000000000000000000000000000000081526004016103819061089f565b60405180910390fd5b60055460065461039a9190610618565b42106103db576040517f08c379a00000000000000000000000000000000000000000000000000000000081526004016103d29061090b565b60405180910390fd5b346000803373ffffffffffffffffffffffffffffffffffffffff1673ffffffffffffffffffffffffffffffffffffffff16815260200190815260200160002081905550565b600080600160009054906101000a900473ffffffffffffffffffffffffffffffffffffffff1673ffffffffffffffffffffffffffffffffffffffff1663feaf968c6040518163ffffffff1660e01b815260040160a060405180830381865afa158015610490573d6000803e3d6000fd5b505050506040513d601f19601f820116820180604052508101906104b491906109c5565b5050509150508091505090565b6000806104cc610420565b90506305f5e10081846104df9190610a40565b6104e99190610ab1565b915050919050565b600080fd5b600073ffffffffffffffffffffffffffffffffffffffff82169050919050565b6000610521826104f6565b9050919050565b61053181610516565b811461053c57600080fd5b50565b60008135905061054e81610528565b92915050565b60006020828403121561056a576105696104f1565b5b60006105788482850161053f565b91505092915050565b6000819050919050565b61059481610581565b82525050565b60006020820190506105af600083018461058b565b92915050565b6000819050919050565b6105c8816105b5565b82525050565b60006020820190506105e360008301846105bf565b92915050565b7f4e487b7100000000000000000000000000000000000000000000000000000000600052601160045260246000fd5b600061062382610581565b915061062e83610581565b9250828201905080821115610646576106456105e9565b5b92915050565b600082825260208201905092915050565b7f46756e6420706572696f64206e6f7420636c6f73656400000000000000000000600082015250565b600061069360168361064c565b915061069e8261065d565b602082019050919050565b600060208201905081810360008301526106c281610686565b9050919050565b7f4e6f74206f6e7765722c206e6f207065726d697373696f6e0000000000000000600082015250565b60006106ff60188361064c565b915061070a826106c9565b602082019050919050565b6000602082019050818103600083015261072e816106f2565b9050919050565b7f5461726765742069732072656163686564000000000000000000000000000000600082015250565b600061076b60118361064c565b915061077682610735565b602082019050919050565b6000602082019050818103600083015261079a8161075e565b9050919050565b600081905092915050565b50565b60006107bc6000836107a1565b91506107c7826107ac565b600082019050919050565b60006107dd826107af565b9150819050919050565b7f5472616e73666572207478206661696c65640000000000000000000000000000600082015250565b600061081d60128361064c565b9150610828826107e7565b602082019050919050565b6000602082019050818103600083015261084c81610810565b9050919050565b7f5468652076616c756520746f6f206d696e2c2073656e64206d6f726520455448600082015250565b600061088960208361064c565b915061089482610853565b602082019050919050565b600060208201905081810360008301526108b88161087c565b9050919050565b7f46756e6420706572696f6420697320636c6f7365640000000000000000000000600082015250565b60006108f560158361064c565b9150610900826108bf565b602082019050919050565b60006020820190508181036000830152610924816108e8565b9050919050565b600069ffffffffffffffffffff82169050919050565b61094a8161092b565b811461095557600080fd5b50565b60008151905061096781610941565b92915050565b610976816105b5565b811461098157600080fd5b50565b6000815190506109938161096d565b92915050565b6109a281610581565b81146109ad57600080fd5b50565b6000815190506109bf81610999565b92915050565b600080600080600060a086880312156109e1576109e06104f1565b5b60006109ef88828901610958565b9550506020610a0088828901610984565b9450506040610a11888289016109b0565b9350506060610a22888289016109b0565b9250506080610a3388828901610958565b9150509295509295909350565b6000610a4b82610581565b9150610a5683610581565b9250828202610a6481610581565b91508282048414831517610a7b57610a7a6105e9565b5b5092915050565b7f4e487b7100000000000000000000000000000000000000000000000000000000600052601260045260246000fd5b6000610abc82610581565b9150610ac783610581565b925082610ad757610ad6610a82565b5b82820490509291505056fea2646970667358221220b82122f9194c9b4904e26107921a79241a4f4ab7c5e90ec0610ec1aca3f0532c64736f6c634300081c0033",
  "linkReferences": {},
  "deployedLinkReferences": {}
}