{
  "address": "0xB65b81010BAcd1f59377A92235b97BB649d992C3",
  "abi": [
    {
      "inputs": [
        {
          "internalType": "uint256",
          "name": "_lockTime",
          "type": "uint256"
        },
        {
          "internalType": "address",
          "name": "dataFeedAddr",
          "type": "address"
        }
      ],
      "stateMutability": "nonpayable",
      "type": "constructor"
    },
    {
      "inputs": [],
      "name": "fund",
      "outputs": [],
      "stateMutability": "payable",
      "type": "function"
    },
    {
      "inputs": [
        {
          "internalType": "address",
          "name": "",
          "type": "address"
        }
      ],
      "name": "fundersToAmount",
      "outputs": [
        {
          "internalType": "uint256",
          "name": "",
          "type": "uint256"
        }
      ],
      "stateMutability": "view",
      "type": "function"
    },
    {
      "inputs": [],
      "name": "getChainlinkDataFeedLatestAnswer",
      "outputs": [
        {
          "internalType": "int256",
          "name": "",
          "type": "int256"
        }
      ],
      "stateMutability": "view",
      "type": "function"
    },
    {
      "inputs": [],
      "name": "getFund",
      "outputs": [],
      "stateMutability": "nonpayable",
      "type": "function"
    },
    {
      "inputs": [],
      "name": "owner",
      "outputs": [
        {
          "internalType": "address",
          "name": "",
          "type": "address"
        }
      ],
      "stateMutability": "view",
      "type": "function"
    }
  ],
  "transactionHash": "0x07b29d5fb5f7221d994e9e0f755dba0b99f4581fe5772f001caaad225186d7d4",
  "args": [
    180,
    "0x694AA1769357215DE4FAC081bf1f309aDC325306"
  ],
  "numDeployments": 1,
  "solcInputHash": "154d5d431bb0f78758309c2bcc2b55c2",
  "bytecode": "0x6080604052670de0b6b3a7640000600255662386f26fc1000060035534801561002757600080fd5b50604051610d66380380610d6683398181016040528101906100499190610179565b80600160006101000a81548173ffffffffffffffffffffffffffffffffffffffff021916908373ffffffffffffffffffffffffffffffffffffffff16021790555033600460006101000a81548173ffffffffffffffffffffffffffffffffffffffff021916908373ffffffffffffffffffffffffffffffffffffffff160217905550816005819055504260068190555050506101b9565b600080fd5b6000819050919050565b6100f8816100e5565b811461010357600080fd5b50565b600081519050610115816100ef565b92915050565b600073ffffffffffffffffffffffffffffffffffffffff82169050919050565b60006101468261011b565b9050919050565b6101568161013b565b811461016157600080fd5b50565b6000815190506101738161014d565b92915050565b600080604083850312156101905761018f6100e0565b5b600061019e85828601610106565b92505060206101af85828601610164565b9150509250929050565b610b9e806101c86000396000f3fe60806040526004361061004a5760003560e01c80638da5cb5b1461004f5780638edd6eb61461007a5780639f883a0514610091578063b60d4288146100ce578063bea4dfb5146100d8575b600080fd5b34801561005b57600080fd5b50610064610103565b604051610071919061058e565b60405180910390f35b34801561008657600080fd5b5061008f610129565b005b34801561009d57600080fd5b506100b860048036038101906100b391906105da565b610381565b6040516100c59190610620565b60405180910390f35b6100d6610399565b005b3480156100e457600080fd5b506100ed61047c565b6040516100fa9190610654565b60405180910390f35b600460009054906101000a900473ffffffffffffffffffffffffffffffffffffffff1681565b600554600654610139919061069e565b42101561017b576040517f08c379a00000000000000000000000000000000000000000000000000000000081526004016101729061072f565b60405180910390fd5b600460009054906101000a900473ffffffffffffffffffffffffffffffffffffffff1673ffffffffffffffffffffffffffffffffffffffff163373ffffffffffffffffffffffffffffffffffffffff161461020b576040517f08c379a00000000000000000000000000000000000000000000000000000000081526004016102029061079b565b60405180910390fd5b6003546000803073ffffffffffffffffffffffffffffffffffffffff1673ffffffffffffffffffffffffffffffffffffffff16815260200190815260200160002054101561028e576040517f08c379a000000000000000000000000000000000000000000000000000000000815260040161028590610807565b60405180910390fd5b60003373ffffffffffffffffffffffffffffffffffffffff16476040516102b490610858565b60006040518083038185875af1925050503d80600081146102f1576040519150601f19603f3d011682016040523d82523d6000602084013e6102f6565b606091505b505090508061033a576040517f08c379a0000000000000000000000000000000000000000000000000000000008152600401610331906108b9565b60405180910390fd5b60008060003373ffffffffffffffffffffffffffffffffffffffff1673ffffffffffffffffffffffffffffffffffffffff1681526020019081526020016000208190555050565b60006020528060005260406000206000915090505481565b6002546103a53461051d565b10156103e6576040517f08c379a00000000000000000000000000000000000000000000000000000000081526004016103dd90610925565b60405180910390fd5b6005546006546103f6919061069e565b4210610437576040517f08c379a000000000000000000000000000000000000000000000000000000000815260040161042e90610991565b60405180910390fd5b346000803373ffffffffffffffffffffffffffffffffffffffff1673ffffffffffffffffffffffffffffffffffffffff16815260200190815260200160002081905550565b600080600160009054906101000a900473ffffffffffffffffffffffffffffffffffffffff1673ffffffffffffffffffffffffffffffffffffffff1663feaf968c6040518163ffffffff1660e01b815260040160a060405180830381865afa1580156104ec573d6000803e3d6000fd5b505050506040513d601f19601f820116820180604052508101906105109190610a4b565b5050509150508091505090565b60008061052861047c565b90506305f5e100818461053b9190610ac6565b6105459190610b37565b915050919050565b600073ffffffffffffffffffffffffffffffffffffffff82169050919050565b60006105788261054d565b9050919050565b6105888161056d565b82525050565b60006020820190506105a3600083018461057f565b92915050565b600080fd5b6105b78161056d565b81146105c257600080fd5b50565b6000813590506105d4816105ae565b92915050565b6000602082840312156105f0576105ef6105a9565b5b60006105fe848285016105c5565b91505092915050565b6000819050919050565b61061a81610607565b82525050565b60006020820190506106356000830184610611565b92915050565b6000819050919050565b61064e8161063b565b82525050565b60006020820190506106696000830184610645565b92915050565b7f4e487b7100000000000000000000000000000000000000000000000000000000600052601160045260246000fd5b60006106a982610607565b91506106b483610607565b92508282019050808211156106cc576106cb61066f565b5b92915050565b600082825260208201905092915050565b7f46756e6420706572696f64206e6f7420636c6f73656400000000000000000000600082015250565b60006107196016836106d2565b9150610724826106e3565b602082019050919050565b600060208201905081810360008301526107488161070c565b9050919050565b7f4e6f74206f6e7765722c206e6f207065726d697373696f6e0000000000000000600082015250565b60006107856018836106d2565b91506107908261074f565b602082019050919050565b600060208201905081810360008301526107b481610778565b9050919050565b7f5461726765742069732072656163686564000000000000000000000000000000600082015250565b60006107f16011836106d2565b91506107fc826107bb565b602082019050919050565b60006020820190508181036000830152610820816107e4565b9050919050565b600081905092915050565b50565b6000610842600083610827565b915061084d82610832565b600082019050919050565b600061086382610835565b9150819050919050565b7f5472616e73666572207478206661696c65640000000000000000000000000000600082015250565b60006108a36012836106d2565b91506108ae8261086d565b602082019050919050565b600060208201905081810360008301526108d281610896565b9050919050565b7f5468652076616c756520746f6f206d696e2c2073656e64206d6f726520455448600082015250565b600061090f6020836106d2565b915061091a826108d9565b602082019050919050565b6000602082019050818103600083015261093e81610902565b9050919050565b7f46756e6420706572696f6420697320636c6f7365640000000000000000000000600082015250565b600061097b6015836106d2565b915061098682610945565b602082019050919050565b600060208201905081810360008301526109aa8161096e565b9050919050565b600069ffffffffffffffffffff82169050919050565b6109d0816109b1565b81146109db57600080fd5b50565b6000815190506109ed816109c7565b92915050565b6109fc8161063b565b8114610a0757600080fd5b50565b600081519050610a19816109f3565b92915050565b610a2881610607565b8114610a3357600080fd5b50565b600081519050610a4581610a1f565b92915050565b600080600080600060a08688031215610a6757610a666105a9565b5b6000610a75888289016109de565b9550506020610a8688828901610a0a565b9450506040610a9788828901610a36565b9350506060610aa888828901610a36565b9250506080610ab9888289016109de565b9150509295509295909350565b6000610ad182610607565b9150610adc83610607565b9250828202610aea81610607565b91508282048414831517610b0157610b0061066f565b5b5092915050565b7f4e487b7100000000000000000000000000000000000000000000000000000000600052601260045260246000fd5b6000610b4282610607565b9150610b4d83610607565b925082610b5d57610b5c610b08565b5b82820490509291505056fea26469706673582212201a4cb1b593501d13436df25dddacfb97c4bbedda0dce7079f57e5038323c52d664736f6c634300081c0033",
  "devdoc": {
    "kind": "dev",
    "methods": {},
    "version": 1
  },
  "userdoc": {
    "kind": "user",
    "methods": {},
    "version": 1
  },
  "storageLayout": {
    "storage": [
      {
        "astId": 53,
        "contract": "contracts/FundMe.sol:FundMe",
        "label": "fundersToAmount",
        "offset": 0,
        "slot": "0",
        "type": "t_mapping(t_address,t_uint256)"
      },
      {
        "astId": 56,
        "contract": "contracts/FundMe.sol:FundMe",
        "label": "dataFeed",
        "offset": 0,
        "slot": "1",
        "type": "t_contract(AggregatorV3Interface)45"
      },
      {
        "astId": 63,
        "contract": "contracts/FundMe.sol:FundMe",
        "label": "MINIMUM_VALUE",
        "offset": 0,
        "slot": "2",
        "type": "t_uint256"
      },
      {
        "astId": 72,
        "contract": "contracts/FundMe.sol:FundMe",
        "label": "TARGET_VALUE",
        "offset": 0,
        "slot": "3",
        "type": "t_uint256"
      },
      {
        "astId": 74,
        "contract": "contracts/FundMe.sol:FundMe",
        "label": "owner",
        "offset": 0,
        "slot": "4",
        "type": "t_address"
      },
      {
        "astId": 76,
        "contract": "contracts/FundMe.sol:FundMe",
        "label": "lockTimestamp",
        "offset": 0,
        "slot": "5",
        "type": "t_uint256"
      },
      {
        "astId": 78,
        "contract": "contracts/FundMe.sol:FundMe",
        "label": "deploymentTimestamp",
        "offset": 0,
        "slot": "6",
        "type": "t_uint256"
      }
    ],
    "types": {
      "t_address": {
        "encoding": "inplace",
        "label": "address",
        "numberOfBytes": "20"
      },
      "t_contract(AggregatorV3Interface)45": {
        "encoding": "inplace",
        "label": "contract AggregatorV3Interface",
        "numberOfBytes": "20"
      },
      "t_mapping(t_address,t_uint256)": {
        "encoding": "mapping",
        "key": "t_address",
        "label": "mapping(address => uint256)",
        "numberOfBytes": "32",
        "value": "t_uint256"
      },
      "t_uint256": {
        "encoding": "inplace",
        "label": "uint256",
        "numberOfBytes": "32"
      }
    }
  }
}