{
  "_format": "hh-sol-artifact-1",
  "contractName": "Token",
  "sourceName": "contracts/Token.sol",
  "abi": [
    {
      "inputs": [],
      "stateMutability": "nonpayable",
      "type": "constructor"
    },
    {
      "inputs": [
        {
          "internalType": "address",
          "name": "account",
          "type": "address"
        }
      ],
      "name": "balanceOf",
      "outputs": [
        {
          "internalType": "uint256",
          "name": "",
          "type": "uint256"
        }
      ],
      "stateMutability": "view",
      "type": "function"
    },
    {
      "inputs": [],
      "name": "owner",
      "outputs": [
        {
          "internalType": "address",
          "name": "",
          "type": "address"
        }
      ],
      "stateMutability": "view",
      "type": "function"
    },
    {
      "inputs": [],
      "name": "totalSupply",
      "outputs": [
        {
          "internalType": "uint256",
          "name": "",
          "type": "uint256"
        }
      ],
      "stateMutability": "view",
      "type": "function"
    },
    {
      "inputs": [
        {
          "internalType": "address",
          "name": "to",
          "type": "address"
        },
        {
          "internalType": "uint256",
          "name": "amount",
          "type": "uint256"
        }
      ],
      "name": "transfer",
      "outputs": [],
      "stateMutability": "nonpayable",
      "type": "function"
    }
  ],
  "bytecode": "0x6080604052620f4240600055348015601657600080fd5b5033600260006101000a81548173ffffffffffffffffffffffffffffffffffffffff021916908373ffffffffffffffffffffffffffffffffffffffff160217905550600054600160003373ffffffffffffffffffffffffffffffffffffffff1673ffffffffffffffffffffffffffffffffffffffff16815260200190815260200160002081905550610524806100ad6000396000f3fe608060405234801561001057600080fd5b506004361061004c5760003560e01c806318160ddd1461005157806370a082311461006f5780638da5cb5b1461009f578063a9059cbb146100bd575b600080fd5b6100596100d9565b6040516100669190610299565b60405180910390f35b61008960048036038101906100849190610317565b6100df565b6040516100969190610299565b60405180910390f35b6100a7610128565b6040516100b49190610353565b60405180910390f35b6100d760048036038101906100d2919061039a565b61014e565b005b60005481565b6000600160008373ffffffffffffffffffffffffffffffffffffffff1673ffffffffffffffffffffffffffffffffffffffff168152602001908152602001600020549050919050565b600260009054906101000a900473ffffffffffffffffffffffffffffffffffffffff1681565b80600160003373ffffffffffffffffffffffffffffffffffffffff1673ffffffffffffffffffffffffffffffffffffffff1681526020019081526020016000205410156101d0576040517f08c379a00000000000000000000000000000000000000000000000000000000081526004016101c790610437565b60405180910390fd5b80600160003373ffffffffffffffffffffffffffffffffffffffff1673ffffffffffffffffffffffffffffffffffffffff168152602001908152602001600020600082825461021f9190610486565b9250508190555080600160008473ffffffffffffffffffffffffffffffffffffffff1673ffffffffffffffffffffffffffffffffffffffff168152602001908152602001600020600082825461027591906104ba565b925050819055505050565b6000819050919050565b61029381610280565b82525050565b60006020820190506102ae600083018461028a565b92915050565b600080fd5b600073ffffffffffffffffffffffffffffffffffffffff82169050919050565b60006102e4826102b9565b9050919050565b6102f4816102d9565b81146102ff57600080fd5b50565b600081359050610311816102eb565b92915050565b60006020828403121561032d5761032c6102b4565b5b600061033b84828501610302565b91505092915050565b61034d816102d9565b82525050565b60006020820190506103686000830184610344565b92915050565b61037781610280565b811461038257600080fd5b50565b6000813590506103948161036e565b92915050565b600080604083850312156103b1576103b06102b4565b5b60006103bf85828601610302565b92505060206103d085828601610385565b9150509250929050565b600082825260208201905092915050565b7f4e6f7420656e6f75676820746f6b656e73000000000000000000000000000000600082015250565b60006104216011836103da565b915061042c826103eb565b602082019050919050565b6000602082019050818103600083015261045081610414565b9050919050565b7f4e487b7100000000000000000000000000000000000000000000000000000000600052601160045260246000fd5b600061049182610280565b915061049c83610280565b92508282039050818111156104b4576104b3610457565b5b92915050565b60006104c582610280565b91506104d083610280565b92508282019050808211156104e8576104e7610457565b5b9291505056fea26469706673582212206aea4c0c4197aa048cc3c58e01ad50ae02367eba565bf104f33681af4fa6866064736f6c634300081c0033",
  "linkReferences": {},
  "deployedLinkReferences": {}
}